:10085F00537461747573004175746F6D617469635E
:10086F000049727269676174696F6E205379732ED4
:10087F00004C657373206D6F6973747572650045F5
:0F088F006E6F756768206D6F69737475726500A1
:0A092100C2918FA0D2927F027E00E7
:10092B00D3EF9400EE6480948040147DFB7C04ED47
:0F093B001D70011CED4C70F7EF1F70E41E80E182
:01094A00228A
:08098F00C290120921C292225C
:08099700D290120921C2922244
:10096F007F3812098F7F0612098F7F0C12098F7F34
:04097F000102098FD9
:0608CB008B0B8A0C890D65
:1008D100E4F50EF50FAB0BAA0CA90D850F82850E61
:1008E1008312089EFF600D120997050FE50F70E551
:0408F100050E80E18F
:0108F50022E0
:07094B007D027C00E4FFFEC9
:10095200AB07AA06ED64014C7005EF44808009EDF7
:0D09620064024C7007EB44C0FF12098F22A5
:05099F00D2B2C2B1223A
:1008F6008B088A09890A7F0112098F7D017C007F96
:10090600047E001209527BFF7A08795F1208CB1227
:0B091600094BAB08AA09A90A0208CB94
:1008000012099F12096F7F0112098F7D017C007F01
:10081000027E001209527BFF7A0879661208CB1219
:10082000094B7BFF7A0879701208CB7FE87E038042
:100830001230B2147BFF7A0879801208F6D2B17FA9
:10084000F47E0112092B80E920B2E67BFF7A087959
:0F0850008E1208F6C2B17F647E0012092B80D28F
:030000000209836F
:0C098300787FE4F6D8FD75810F020800B3
:10089E00BB010CE58229F582E5833AF583E022500F
:1008AE0006E92582F8E622BBFE06E92582F8E22259
:0D08BE00E58229F582E5833AF583E4932273
:00000001FF
